:100000000C9456000C9475000C9475000C947500BB
:100010000C9475000C9475000C9475000C9475008C
:100020000C9475000C9475000C9475000C9475007C
:100030000C9475000C9417020C9475000C947500C8
:100040000C9475000C9475000C9475000C9475005C
:100050000C9475000C9475000C9475000C9475004C
:100060000C9475000C9475000C9475000C9475003C
:100070000C9475000C9475000C9475000C9475002C
:100080000C9475000C9475000C947500EA025F03E3
:10009000D2033D043A03B1032C049604A70484065A
:1000A0008E06BD06CA0672077F07900711241FBE81
:1000B000CFEFD0E4DEBFCDBF11E0A0E0B1E0E0EDD6
:1000C000FDE100E00BBF02C007900D92AE35B10715
:1000D000D9F721E0AEE5B1E001C01D92A33BB20724
:1000E000E1F70E94C8080C94E60E0C940000CF9330
:1000F000DF93CDB7DEB781E00E949E000000DF9164
:10010000CF910895CF93DF93CDB7DEB784E690E02B
:100110000E94420188E30E949E0086E00E949E00A9
:100120008FE00E949E0081E00E949E008AE090E0A5
:100130000E9442010000DF91CF910895CF93DF9399
:100140001F92CDB7DEB789838BE290E02BE230E0DF
:10015000F90120812F7BFC01208385E290E0298139
:10016000FC0120838BE290E02BE230E0F90120815A
:100170002068FC01208300008BE290E02BE230E05D
:10018000F90120812F77FC01208382E090E00E941A
:10019000420100000F90DF91CF910895CF93DF933C
:1001A0001F92CDB7DEB789838BE290E02BE230E07F
:1001B000F90120812064FC01208385E290E02981FF
:1001C000FC0120838BE290E02BE230E0F9012081FA
:1001D0002068FC01208300008BE290E02BE230E0FD
:1001E000F90120812F77FC01208381E090E00E94BB
:1001F000420100000F90DF91CF910895CF93DF93DC
:1002000000D000D0CDB7DEB78A837C836B830E9499
:1002100077008A81898311C0898191E0980F998341
:100220000E942B018B819C819C012F5F3F4F3C835F
:100230002B83FC0180810E94CE008B819C81FC017C
:100240008081882349F700000F900F900F900F9046
:10025000DF91CF910895CF93DF931F92CDB7DEB793
:1002600089838981813128F4898181580E949E0087
:1002700004C0898181550E949E0000000F90DF918B
:10028000CF910895CF93DF9300D000D000D0CDB7A9
:10029000DEB79E838D831A82198213C01C821B8253
:1002A00006C000008B819C8101969C838B838B818F
:1002B0009C8187309340ACF389819A8101969A831F
:1002C000898329813A818D819E812817390734F3EA
:1002D000000026960FB6F894DEBF0FBECDBFDF91AB
:1002E000CF910895CF93DF9300D01F92CDB7DEB7A3
:1002F00089837B836A8389818A3031F48A819B81F7
:10030000BC018DE00E94720180EC90E0FC018081D4
:10031000882F90E080729927892BB1F386EC90E0CA
:100320002981FC01208380E090E00F900F900F90D6
:10033000DF91CF910895CF93DF9300D000D0CDB758
:10034000DEB769837A838B839C8389819A81AB81B1
:10035000BC8180930E0190930F01A0931001B09384
:10036000110180910E0190910F01A0911001B091A7
:10037000110180935F0190936001A0936101B0939C
:10038000620100000F900F900F900F90DF91CF91BE
:100390000895CF93DF93CDB7DEB781E890E02BE0EF
:1003A000FC01208388E890E02DE730E0FC013183F8
:1003B00020838FE690E022E0FC01208384E890E037
:1003C000FC011182108280910E0190910F01A09189
:1003D0001001B091110180935F0190936001A0938F
:1003E0006101B09362018FE590E02FE530E0F90103
:1003F00020812068FC0120830000DF91CF910895C7
:10040000CF93DF93CDB7DEB781E890E0FC01108297
:100410000000DF91CF910895CF93DF93CDB7DEB782
:1004200081E080935E010000DF91CF9108951F92DB
:100430000F9200905F000F92112400905B000F92CA
:100440002F933F934F935F936F937F938F939F93DC
:10045000AF93BF93EF93FF93CF93DF93CDB7DEB707
:1004600080915F0190916001A0916101B091620162
:100470000197A109B10980935F0190936001A09356
:100480006101B093620180915F0190916001A09140
:100490006101B0916201892B8A2B8B2B91F40E9410
:1004A0000C0280910E0190910F01A0911001B0916A
:1004B000110180935F0190936001A0936101B0935B
:1004C00062010000DF91CF91FF91EF91BF91AF9159
:1004D0009F918F917F916F915F914F913F912F915C
:1004E0000F9000925B000F9000925F000F901F90A2
:1004F0001895CF93DF93CDB7DEB72C970FB6F8944E
:10050000DEBF0FBECDBF6D837E838F839887298723
:100510003A874B875C878D819E81AF81B88529851D
:100520003A854B855C85BC01CD010E94230BDC0123
:10053000CB0189839A83AB83BC8389819A81AB8108
:10054000BC81892B8A2B8B2B29F489859A85AB85D5
:10055000BC8511C089859A85AB85BC858D839E83BA
:10056000AF83B88789819A81AB81BC8189879A875B
:10057000AB87BC87D0CFBC01CD012C960FB6F894C9
:10058000DEBF0FBECDBFDF91CF910895CF93DF9334
:1005900000D01F92CDB7DEB79B838A8380E290E0C4
:1005A000FC01808180958F7089838A819B81092ECF
:1005B000000CAA0BBB0B40E050E028E030E0841BAD
:1005C000950B2817390708F4CEC18A5B9F4FFC01B1
:1005D0000C94450B8981823029F484E090E09B8360
:1005E0008A833CC089818430D1F4809113018823AF
:1005F00021F080911301803140F08091130180320D
:1006000048F480911301823128F0809113018F5FAB
:100610008093130186E090E09B838A831FC08981C9
:100620008830D1F480911301823020F08091130141
:10063000813140F080911301813248F4809113019F
:10064000833128F08091130181508093130187E05A
:1006500090E09B838A8302C01B821A8280911201E0
:10066000813009F083C10E94770088E090E09B838D
:100670008A837CC180911301813128F48091130118
:10068000805F80931301809113010E942B01898167
:10069000882329F481E090E09B838A8304C084E06E
:1006A00090E09B838A8380911201813009F060C1C0
:1006B0000E94770088E090E09B838A8359C18981FA
:1006C000813029F485E090E09B838A833EC0898154
:1006D0008430D1F480911301882321F0809113019B
:1006E000803140F080911301803248F480911301F1
:1006F000823128F0809113018F5F8093130186E08F
:1007000090E09B838A8321C089818830D1F48091D5
:100710001301823020F080911301813140F08091EB
:100720001301813248F480911301833128F08091C4
:10073000130181508093130187E090E09B838A83AB
:1007400004C081E090E09B838A8380911201813014
:1007500009F010C10E94770088E090E09B838A83B3
:1007600009C180911301813128F0809113018051DA
:1007700080931301809113010E942B0189818823AA
:1007800019F41B821A8204C085E090E09B838A835F
:1007900080911201813009F0EFC088E090E09B83E6
:1007A0008A83EAC08981813029F485E090E09B83C7
:1007B0008A8346C08981823029F484E090E09B835B
:1007C0008A833EC089818830D1F4809113018230C0
:1007D00020F080911301813140F08091130181322A
:1007E00048F480911301833128F0809113018150E6
:1007F0008093130187E090E09B838A8321C08981E5
:100800008430D1F480911301882321F08091130169
:10081000803140F080911301803248F480911301BF
:10082000823128F0809113018F5F8093130186E05D
:1008300090E09B838A8304C082E090E09B838A835C
:1008400080911201813009F099C00E94770088E000
:1008500090E09B838A8392C0809113010E942B01B8
:100860008981882329F482E090E09B838A8389C070
:1008700086E090E09B838A8384C08981813029F45B
:1008800085E090E09B838A8346C08981823029F489
:1008900084E090E09B838A833EC089818430D1F4D8
:1008A00080911301882321F080911301803140F061
:1008B00080911301803248F480911301823128F035
:1008C000809113018F5F8093130186E090E09B83FA
:1008D0008A8321C089818830D1F4809113018230CC
:1008E00020F080911301813140F080911301813219
:1008F00048F480911301833128F0809113018150D5
:100900008093130187E090E09B838A8304C082E098
:1009100090E09B838A8380911201813089F50E9447
:10092000770088E090E09B838A832AC0809113013E
:100930000E942B018981882329F483E090E09B8326
:100940008A831FC087E090E09B838A831AC08091CE
:100950001201882319F41B821A8213C088E090E0E8
:100960009B838A830EC01B821A820BC0000009C0C1
:10097000000007C0000005C0000003C0000001C067
:1009800000008A819B810F900F900F90DF91CF9193
:100990000895CF93DF9300D01F92CDB7DEB79B832E
:1009A0008A8380E290E0FC0180818095807C89834D
:1009B0008A819B818230910509F442C08330910580
:1009C0002CF4009751F0019791F064C083309105A9
:1009D00051F1049709F450C05DC0809169018130E4
:1009E00009F057C081E090E09B838A8352C080E188
:1009F00080931B0180911B010E942B018CE390E0EE
:100A00000E94CE00809113010E942B0189818038C1
:100A100029F483E090E09B838A833CC081E090E0EE
:100A20009B838A8337C08981882329F482E090E000
:100A30009B838A832FC083E090E09B838A832AC0B4
:100A400080E280931B0180911B010E942B018CE3AB
:100A500090E00E94CE00809113010E942B018981B9
:100A6000803429F484E090E09B838A8313C082E081
:100A700090E09B838A830EC08981882329F481E0DA
:100A800090E09B838A8306C084E090E09B838A8306
:100A900001C0000000000F900F900F90DF91CF91E8
:100AA0000895CF93DF9300D01F92CDB7DEB79B831D
:100AB0008A8380E290E0FC01808180958071898347
:100AC0008A819B818130910591F082309105C9F135
:100AD000892B09F044C080916901813029F481E0BB
:100AE00090E09B838A833BC01B821A8238C080912E
:100AF0001C010E942B018DE290E00E94CE008091AB
:100B000013010E942B0180911C01813021F0809102
:100B10001C01813121F480911B0180931C0181E033
:100B200090E09B838A8380911C01815080931C01FB
:100B300080911201813091F482E090E09B838A835E
:100B40000DC08981803129F481E090E09B838A8304
:100B500006C082E090E09B838A8301C00000000011
:100B60000F900F900F90DF91CF910895CF93DF9367
:100B700000D01F92CDB7DEB79B838A8380E290E0DE
:100B8000FC0180818095807289838A819B8181307C
:100B90009105A9F08230910519F1892B09F06FC0F8
:100BA0008981803249F480911201882329F481E0FF
:100BB00090E09B838A8366C01B821A8263C089810E
:100BC000882349F48091130180931A0182E090E018
:100BD0009B838A8357C081E090E09B838A8352C0C5
:100BE00080911A010E942B018DE290E00E94CE00BC
:100BF000809113010E942B0180911A01282F30E06F
:100C000080911401909115012817390759F08091AE
:100C10001A01282F30E080911601909117012817B2
:100C20003907A9F480911A01282F30E0809116012C
:100C3000909117012817390721F41092170110928B
:100C400016011B821A828FEF80931A0112C08091C5
:100C50001A01803121F080911A01803231F48FEF36
:100C600080931A011B821A8204C082E090E09B8369
:100C70008A8380911A018F5F80931A0103C01B82BF
:100C80001A8200008A819B810F900F900F90DF9154
:100C9000CF910895CF93DF93CDB7DEB727970FB6E7
:100CA000F894DEBF0FBECDBF9F838E830E94AD0B35
:100CB0002AE030E0B9010E940F0B9A8389830E94D9
:100CC000AD0B2AE030E0B9010E940F0B9C838B83AF
:100CD00080E290E0FC018081809580718D838E811F
:100CE0009F81092E000CAA0BBB0B40E050E026E0D0
:100CF00030E0841B950B2817390708F41EC1815B6F
:100D00009F4FFC010C94450B80911201882309F040
:100D100019C181E090E09F838E8314C18D81803161
:100D200029F482E090E09F838E8304C081E090E00C
:100D30009F838E8380911201813021F485E090E0C1
:100D40009F838E830E9477008091140190911501FA
:100D50000E942B0183E290E00E94CE008091160158
:100D6000909117010E942B018AE290E00E94CE0030
:100D7000809113010E942B01E8C08D81882329F402
:100D800083E090E09F838E83E0C082E090E09F83C9
:100D90008E83DBC0809165019091660101969093EE
:100DA0006601809365012091650130916601809113
:100DB00018019091190128173907C0F08091180186
:100DC000909119018436910588F410926601109271
:100DD00065018091180190911901880F991F9093D6
:100DE00019018093180181E08093670180911401BB
:100DF0009091150118161906ACF0109268018981BE
:100E00009A81019779F48091630190916401019630
:100E1000909364018093630180E190E090931501C9
:100E2000809314018091160190911701429724F04C
:100E3000809168018130A9F4109268018B819C81B6
:100E4000019779F4809163019091640101969093E8
:100E500064018093630180E290E090931701809396
:100E6000160180911401909115010197909315013D
:100E7000809314018091160190911701019790932E
:100E80001701809316010E947700809114019091C0
:100E900015010E942B0183E290E00E94CE00809118
:100EA0001601909117010E942B018AE290E00E94A6
:100EB000CE00809113010E942B018D81803129F495
:100EC00084E090E09F838E8304C083E090E09F8362
:100ED0008E83809112018130B9F585E090E09F8387
:100EE0008E8332C08D81882329F481E090E09F8336
:100EF0008E832BC084E090E09F838E8326C08D81FB
:100F0000803149F41092120186E090E09F838E8335
:100F10000E9477001AC085E090E09F838E8315C001
:100F20008D81882329F483E090E09F838E830DC018
:100F300086E090E09F838E8308C081E090E09F83ED
:100F40008E8303C0000001C000008E819F81279620
:100F50000FB6F894DEBF0FBECDBFDF91CF910895DD
:100F6000CF93DF9300D000D000D0CDB7DEB79E8303
:100F70008D8380E290E0FC0180818095837089837D
:100F80008091630190916401292F2F938F9381E2C7
:100F900091E0892F8F9381E291E08F93CE010296A9
:100FA000292F2F938F930E94BC0B0F900F900F90BF
:100FB0000F900F900F908D819E8182309105B1F13D
:100FC000833091052CF4009771F00197D9F0CBC0D4
:100FD0008430910509F471C084309105C4F10597FE
:100FE00009F499C0C0C081E0809312010E9477008B
:100FF00064E271E081E00E94FE0081E090E09E8367
:101000008D83BBC08981813029F482E090E09E838A
:101010008D83AEC08981823009F0AAC082E090E061
:101020009E838D8381E080936901A2C0898188239A
:1010300049F4109212010E94770083E090E09E83B1
:101040008D839BC082E090E09E838D8396C083E079
:1010500090E09E838D8380911301282F30E0809152
:101060001401909115012817390791F0809113010F
:10107000282F30E080911601909117012817390729
:1010800039F09091130180911C01981709F072C0FA
:1010900081E080936A0110926C0110926B0181E0F3
:1010A0008093120184E090E09E838D8380911301F0
:1010B00063E371E00E94FE005DC080916B0190913E
:1010C0006C010C9750F480916B0190916C0101962A
:1010D00090936C0180936B0150C00E9477006AE38B
:1010E00071E084E00E94FE008BE10E942B018A8166
:1010F000082E000C990B0E94CE008CE10E942B015F
:101100008B81082E000C990B0E94CE0085E090E0A8
:101110009E838D8332C080911201882369F51092DD
:1011200064011092630189E190E09093190180932A
:10113000180110926A0181E0809313018AE090E027
:10114000909315018093140184E190E0909317012E
:101150008093160180911B0180931C0183E090E035
:101160009E838D8309C083E090E09E838D8305C0BC
:10117000000003C0000001C000008D819E81269602
:101180000FB6F894DEBF0FBECDBFDF91CF910895AB
:101190000F931F93CF93DF93CDB7DEB766970FB64C
:1011A000F894DEBF0FBECDBF81E290E0FC0110825B
:1011B00082E290E02FEFFC01208384E290E02FEFA9
:1011C000FC01208385E290E0FC0110828AE290E03D
:1011D0002FEFFC0120838BE290E0FC01108280E085
:1011E00090E00E94FC0ADC01CB010E94B10B8CE074
:1011F000E2E5F1E0DE011B9601900D928A95E1F7A0
:1012000086E090E09A87898710926D0184E690E0ED
:10121000A0E0B0E080936E0190936F01A093700105
:10122000B093710180916E0190916F01A091700156
:10123000B09171018093720190937301A093740136
:10124000B093750186EC92E09093770180937601DC
:101250001092780188EC90E0A0E0B0E080937901F2
:1012600090937A01A0937B01B0937C0180917901E6
:1012700090917A01A0917B01B0917C0180937D01D6
:1012800090937E01A0937F01B09380018AE496E061
:1012900090938201809381011092830184E690E013
:1012A000A0E0B0E08093840190938501A093860133
:1012B000B09387018091840190918501A09186016E
:1012C000B09187018093880190938901A0938A014E
:1012D000B0938B0180EB97E090938D0180938C010C
:1012E00010928E0182E390E0A0E0B0E080938F0145
:1012F00090939001A0939101B093920180918F01FE
:1013000090919001A0919101B091920180939301ED
:1013100090939401A0939501B093960186EB95E08C
:1013200090939801809397011092990184E690E040
:10133000A0E0B0E080939A0190939B01A0939C0160
:10134000B0939D0180919A0190919B01A0919C0185
:10135000B0919D0180939E0190939F01A093A00165
:10136000B093A10189EC94E09093A3018093A20132
:101370001092A40184E690E0A0E0B0E08093A50183
:101380009093A601A093A701B093A8018091A50115
:101390009091A601A091A701B091A8018093A90105
:1013A0009093AA01A093AB01B093AC0181E595E0C5
:1013B0009093AE018093AD018B859C85FC0181816A
:1013C0009281A381B48189839A83AB83BC831E827B
:1013D0001D8225C08D819E81880F991F9E012F5FE0
:1013E0003F4F820F931F0A96FC0180819181FC017F
:1013F000218132814381548189819A81AB81BC8171
:10140000BC01CD010E947902DC01CB0189839A8362
:10141000AB83BC838D819E8101969E838D832D81BC
:101420003E8189859A8528173907A0F289819A819A
:10143000AB81BC81BC01CD010E949B010E94C9010E
:101440000E94820018861F82A0C08F819885880F15
:10145000991F9E012F5F3F4F820F931F0A96FC0139
:1014600080819181FC0125813681478150858F8162
:101470009885880F991FBE016F5F7F4F860F971F5A
:101480000A96FC0180819181FC0181819281A38176
:10149000B481281739074A075B0709F045C08F81D7
:1014A0009885880F991F9E012F5F3F4F820F931FD2
:1014B0000A96FC01008111818F819885880F991F00
:1014C0009E012F5F3F4F820F931F0A96FC01808180
:1014D0009181FC01218532858F819885880F991F24
:1014E000AE014F5F5F4F840F951F0A96FC0180810C
:1014F0009181FC018081082E000C990BF90109955E
:10150000F80180838F819885880F991F9E012F5F36
:101510003F4F820F931F0A96FC0180819181FC014D
:1015200015821682178210868F819885880F991FE1
:101530009E012F5F3F4F820F931F0A96FC0160812F
:1015400071818F819885880F991F9E012F5F3F4F72
:10155000820F931F0A96FC0180819181FC012581F5
:1015600036814781508589819A81AB81BC81820F08
:10157000931FA41FB51FFB0185839683A783B087A4
:101580008F819885019698878F832F8138858985EB
:101590009A852817390708F458CF80916701813060
:1015A000A1F4109267012D853E858D859E85FC01F5
:1015B00081819281A381B481B695A79597958795EE
:1015C000F90181839283A383B48380916A0181307E
:1015D00059F42D853E8588EC90E0A0E0B0E0F9015B
:1015E00081839283A383B483000080915E0188236A
:1015F000E1F310925E0126CFFC010FB6F8946091E2
:10160000AF017091B0018091B1019091B2010FBE14
:10161000309721F06083718382839383089597FBD1
:10162000072E16F4009407D077FD09D00E944E0BC8
:1016300007FC05D03EF4909581959F4F08957095D5
:1016400061957F4F0895A1E21A2EAA1BBB1BFD01D5
:101650000DC0AA1FBB1FEE1FFF1FA217B307E40791
:10166000F50720F0A21BB30BE40BF50B661F771FE9
:10167000881F991F1A9469F76095709580959095C9
:101680009B01AC01BD01CF010895EE0FFF1F0024A7
:10169000001C0BBE0790F691E02D0994AA1BBB1B02
:1016A00051E107C0AA1FBB1FA617B70710F0A61B62
:1016B000B70B881F991F5A95A9F780959095BC0183
:1016C000CD0108958F929F92AF92BF92CF92DF92F9
:1016D000EF92FF92CF93DF93EC01688179818A8149
:1016E0009B81611571058105910521F464E279ED15
:1016F0008BE597E02DE133EF41E050E00E94A50E2D
:1017000049015A019B01AC01A7EAB1E40E94C40E51
:101710006B017C01ACEEB4EFA50194010E94D20EE6
:10172000DC01CB018C0D9D1DAE1DBF1DB7FF03C09D
:101730000197A109B04888839983AA83BB839F77C7
:10174000DF91CF91FF90EF90DF90CF90BF90AF905F
:101750009F908F9008950C94620B8DE191E00C9412
:10176000620BA0E0B0E080931D0190931E01A09356
:101770001F01B093200108950F931F93CF93DF9320
:10178000CDB7DEB72E970FB6F894DEBF0FBECDBF34
:101790000D891E8986E08C831A8309838FEF9FE76A
:1017A0009E838D83AE01475E5F4F6F89788DCE013A
:1017B00001960E94EB0BEF81F885E00FF11F10827C
:1017C0002E960FB6F894DEBF0FBECDBFDF91CF913E
:1017D0001F910F9108952F923F924F925F926F92B7
:1017E0007F928F929F92AF92BF92CF92DF92EF92B1
:1017F000FF920F931F93CF93DF93CDB7DEB72B9755
:101800000FB6F894DEBF0FBECDBF6C017B018A011D
:10181000FC0117821682838181FFCCC1CE01019623
:101820003C01F6019381F70193FD859193FF81912E
:101830007F01882309F4BAC1853239F493FD85917B
:1018400093FF81917F01853229F4B60190E00E94D7
:101850000B0EE7CF912C212C312CFFE1F315D8F0A2
:101860008B3279F038F4803279F08332A1F4232D71
:1018700020611DC08D3261F0803369F4232D216019
:1018800016C0832D8260382EE32DE4603E2E2AC0E0
:10189000F32DF8601DC037FC2DC020ED280F2A3035
:1018A00040F08E32B9F436FC81C1232D2064322EF3
:1018B00019C036FE06C08AE0989E200D1124922E93
:1018C00011C0EAE02E9E200D1124222EF32DF0628D
:1018D0003F2E08C08C3621F4832D8068382E02C03C
:1018E000883641F4F70193FD859193FF81917F0143
:1018F0008111B3CF982F9F7D9554933028F40C5FBE
:101900001F4F9FE399830DC0833631F0833771F009
:10191000833509F059C021C0F801808189830E5FA9
:101920001F4F88248394912C530113C02801F2E0A7
:101930004F0E511CF801A080B18036FE03C0692D06
:1019400070E002C06FEF7FEFC5010E94000E4C01F6
:101950008201F32DFF773F2E16C0280122E0420EB0
:10196000511CF801A080B18036FE03C0692D70E0E3
:1019700002C06FEF7FEFC5010E94F50D4C01F32D02
:10198000F0683F2E820133FC1BC0822D90E0881648
:101990009906B0F4B60180E290E00E940B0E2A9402
:1019A000F4CFF50137FC859137FE81915F01B601D7
:1019B00090E00E940B0E21102A9421E0821A9108D7
:1019C0008114910471F7E8C0843611F0893641F52D
:1019D000F80137FE07C060817181828193810C5FBD
:1019E0001F4F08C060817181072E000C880B990B76
:1019F0000E5F1F4FF32DFF763F2E97FF09C0909586
:101A00008095709561957F4F8F4F9F4FF0683F2E67
:101A10002AE030E0A3010E94470E882E861845C0B8
:101A2000853731F4232D2F7EB22E2AE030E025C0F9
:101A3000932D997FB92E8F36C1F018F4883579F03F
:101A4000B5C0803719F0883721F0B0C0E92FE061C8
:101A5000BE2EB4FE0DC0FB2DF460BF2E09C034FEB7
:101A60000AC0292F2660B22E06C028E030E005C04B
:101A700020E130E002C020E132E0F801B7FE07C00B
:101A800060817181828193810C5F1F4F06C06081EC
:101A9000718180E090E00E5F1F4FA3010E94470E0E
:101AA000882E8618FB2DFF773F2E36FE0DC0232D86
:101AB0002E7FA22E891458F434FE0BC032FC09C0CC
:101AC000832D8E7EA82E05C0B82CA32C03C0B82C65
:101AD00001C0B92CA4FE0FC0FE01E80DF11D8081EC
:101AE000803321F49A2D997EA92E09C0A2FE06C04A
:101AF000B394B39404C08A2D867809F0B394A3FC00
:101B000011C0A0FE06C0B21488F4280C922C9B18B9
:101B10000EC0B21460F4B60180E290E00E940B0E99
:101B2000B394F7CFB21418F42B1802C0982C212CC0
:101B3000A4FE10C0B60180E390E00E940B0EA2FE4E
:101B400017C0A1FC03C088E790E002C088E590E0E0
:101B5000B6010CC08A2D867859F0A1FE02C08BE236
:101B600001C080E2A7FC8DE2B60190E00E940B0E5E
:101B7000891438F4B60180E390E00E940B0E9A9429
:101B8000F7CF8A94F301E80DF11D8081B60190E052
:101B90000E940B0E8110F5CF222009F442CEB6012F
:101BA00080E290E00E940B0E2A94F6CFF601868127
:101BB000978102C08FEF9FEF2B960FB6F894DEBF90
:101BC0000FBECDBFDF91CF911F910F91FF90EF908E
:101BD000DF90CF90BF90AF909F908F907F906F904D
:101BE0005F904F903F902F900895FC0105906150B9
:101BF00070400110D8F7809590958E0F9F1F089523
:101C0000FC016150704001900110D8F780959095CB
:101C10008E0F9F1F08950F931F93CF93DF93FB01A8
:101C2000238121FD03C08FEF9FEF2CC022FF16C040
:101C300046815781248135814217530744F4A0819E
:101C4000B1819D012F5F3F4F318320838C9326818B
:101C500037812F5F3F4F3783268314C08B01EC0100
:101C6000FB010084F185E02D0995892BE1F6D8016F
:101C700016968D919C911797019617969C938E932B
:101C80001697CE01DF91CF911F910F910895FA0120
:101C9000AA27283051F1203181F1E8946F936E7FAB
:101CA0006E5F7F4F8F4F9F4FAF4FB1E03ED0B4E09C
:101CB0003CD0670F781F891F9A1FA11D680F791FDD
:101CC0008A1F911DA11D6A0F711D811D911DA11DEE
:101CD00020D009F468943F912AE0269F11243019FE
:101CE000305D3193DEF6CF010895462F4770405D99
:101CF0004193B3E00FD0C9F7F6CF462F4F70405D48
:101D00004A3318F0495D31FD4052419302D0A9F7A2
:101D1000EACFB4E0A6959795879577956795BA959C
:101D2000C9F700976105710508959B01AC010A2E62
:101D300006945795479537952795BA95C9F7620F39
:101D4000731F841F951FA01D0895052E97FB1EF479
:101D500000940E94BC0E57FD07D00E94230B07FC85
:101D600003D04EF40C94BC0E5095409530952195BF
:101D70003F4F4F4F5F4F08959095809570956195B7
:101D80007F4F8F4F9F4F08950E94D70EA59F900DB4
:101D9000B49F900DA49F800D911D11240895B7FF4D
:101DA0000C94C40E0E94C40E821B930B0895A29F34
:101DB000B001B39FC001A39F700D811D1124911D1F
:101DC000B29F700D811D1124911D0895F894FFCFCD
:101DD000000000020000000072010000000001008D
:101DE000000001010A0014001900FF10100100009A
:101DF0000025640055502031502C20646F776E20F0
:101E00003250004352415348210047616D65204FD5
:101E1000766572202020202020202073636F726559
:0E1E20003A006D01780183018E019901A40141
:00000001FF
